{
  "_format": "hh-sol-artifact-1",
  "contractName": "AMM",
  "sourceName": "contracts/AMM.sol",
  "abi": [
    {
      "inputs": [
        {
          "internalType": "contract Token",
          "name": "_token1",
          "type": "address"
        },
        {
          "internalType": "contract Token",
          "name": "_token2",
          "type": "address"
        }
      ],
      "stateMutability": "nonpayable",
      "type": "constructor"
    },
    {
      "anonymous": false,
      "inputs": [
        {
          "indexed": false,
          "internalType": "address",
          "name": "user",
          "type": "address"
        },
        {
          "indexed": false,
          "internalType": "address",
          "name": "tokenGive",
          "type": "address"
        },
        {
          "indexed": false,
          "internalType": "uint256",
          "name": "tokenGiveAmount",
          "type": "uint256"
        },
        {
          "indexed": false,
          "internalType": "address",
          "name": "tokenGet",
          "type": "address"
        },
        {
          "indexed": false,
          "internalType": "uint256",
          "name": "tokenGetAmount",
          "type": "uint256"
        },
        {
          "indexed": false,
          "internalType": "uint256",
          "name": "token1Balance",
          "type": "uint256"
        },
        {
          "indexed": false,
          "internalType": "uint256",
          "name": "token2Balance",
          "type": "uint256"
        },
        {
          "indexed": false,
          "internalType": "uint256",
          "name": "timestamp",
          "type": "uint256"
        }
      ],
      "name": "Swap",
      "type": "event"
    },
    {
      "inputs": [],
      "name": "K",
      "outputs": [
        {
          "internalType": "uint256",
          "name": "",
          "type": "uint256"
        }
      ],
      "stateMutability": "view",
      "type": "function"
    },
    {
      "inputs": [
        {
          "internalType": "uint256",
          "name": "_token1Amount",
          "type": "uint256"
        },
        {
          "internalType": "uint256",
          "name": "_token2Amount",
          "type": "uint256"
        }
      ],
      "name": "addLiquidity",
      "outputs": [],
      "stateMutability": "nonpayable",
      "type": "function"
    },
    {
      "inputs": [
        {
          "internalType": "uint256",
          "name": "_token2Amount",
          "type": "uint256"
        }
      ],
      "name": "calculateToken1Deposit",
      "outputs": [
        {
          "internalType": "uint256",
          "name": "token1Amount",
          "type": "uint256"
        }
      ],
      "stateMutability": "view",
      "type": "function"
    },
    {
      "inputs": [
        {
          "internalType": "uint256",
          "name": "_token1Amount",
          "type": "uint256"
        }
      ],
      "name": "calculateToken1Swap",
      "outputs": [
        {
          "internalType": "uint256",
          "name": "token2Amount",
          "type": "uint256"
        }
      ],
      "stateMutability": "view",
      "type": "function"
    },
    {
      "inputs": [
        {
          "internalType": "uint256",
          "name": "_token1Amount",
          "type": "uint256"
        }
      ],
      "name": "calculateToken2Deposit",
      "outputs": [
        {
          "internalType": "uint256",
          "name": "token2Amount",
          "type": "uint256"
        }
      ],
      "stateMutability": "view",
      "type": "function"
    },
    {
      "inputs": [
        {
          "internalType": "uint256",
          "name": "_token2Amount",
          "type": "uint256"
        }
      ],
      "name": "calculateToken2Swap",
      "outputs": [
        {
          "internalType": "uint256",
          "name": "token1Amount",
          "type": "uint256"
        }
      ],
      "stateMutability": "view",
      "type": "function"
    },
    {
      "inputs": [
        {
          "internalType": "uint256",
          "name": "_share",
          "type": "uint256"
        }
      ],
      "name": "calculateWithdrawAmount",
      "outputs": [
        {
          "internalType": "uint256",
          "name": "token1Amount",
          "type": "uint256"
        },
        {
          "internalType": "uint256",
          "name": "token2Amount",
          "type": "uint256"
        }
      ],
      "stateMutability": "view",
      "type": "function"
    },
    {
      "inputs": [
        {
          "internalType": "uint256",
          "name": "_share",
          "type": "uint256"
        }
      ],
      "name": "removeLiquidity",
      "outputs": [
        {
          "internalType": "uint256",
          "name": "token1Amount",
          "type": "uint256"
        },
        {
          "internalType": "uint256",
          "name": "token2Amount",
          "type": "uint256"
        }
      ],
      "stateMutability": "nonpayable",
      "type": "function"
    },
    {
      "inputs": [
        {
          "internalType": "address",
          "name": "",
          "type": "address"
        }
      ],
      "name": "shares",
      "outputs": [
        {
          "internalType": "uint256",
          "name": "",
          "type": "uint256"
        }
      ],
      "stateMutability": "view",
      "type": "function"
    },
    {
      "inputs": [
        {
          "internalType": "uint256",
          "name": "_token1Amount",
          "type": "uint256"
        }
      ],
      "name": "swapToken1",
      "outputs": [
        {
          "internalType": "uint256",
          "name": "token2Amount",
          "type": "uint256"
        }
      ],
      "stateMutability": "nonpayable",
      "type": "function"
    },
    {
      "inputs": [
        {
          "internalType": "uint256",
          "name": "_token2Amount",
          "type": "uint256"
        }
      ],
      "name": "swapToken2",
      "outputs": [
        {
          "internalType": "uint256",
          "name": "token1Amount",
          "type": "uint256"
        }
      ],
      "stateMutability": "nonpayable",
      "type": "function"
    },
    {
      "inputs": [],
      "name": "token1",
      "outputs": [
        {
          "internalType": "contract Token",
          "name": "",
          "type": "address"
        }
      ],
      "stateMutability": "view",
      "type": "function"
    },
    {
      "inputs": [],
      "name": "token1Balance",
      "outputs": [
        {
          "internalType": "uint256",
          "name": "",
          "type": "uint256"
        }
      ],
      "stateMutability": "view",
      "type": "function"
    },
    {
      "inputs": [],
      "name": "token2",
      "outputs": [
        {
          "internalType": "contract Token",
          "name": "",
          "type": "address"
        }
      ],
      "stateMutability": "view",
      "type": "function"
    },
    {
      "inputs": [],
      "name": "token2Balance",
      "outputs": [
        {
          "internalType": "uint256",
          "name": "",
          "type": "uint256"
        }
      ],
      "stateMutability": "view",
      "type": "function"
    },
    {
      "inputs": [],
      "name": "totalShares",
      "outputs": [
        {
          "internalType": "uint256",
          "name": "",
          "type": "uint256"
        }
      ],
      "stateMutability": "view",
      "type": "function"
    }
  ],
  "bytecode": "0x60806040523480156200001157600080fd5b5060405162001a6a38038062001a6a83398181016040528101906200003791906200013e565b816000806101000a81548173ffffffffffffffffffffffffffffffffffffffff021916908373ffffffffffffffffffffffffffffffffffffffff16021790555080600160006101000a81548173ffffffffffffffffffffffffffffffffffffffff021916908373ffffffffffffffffffffffffffffffffffffffff160217905550505062000185565b600080fd5b600073ffffffffffffffffffffffffffffffffffffffff82169050919050565b6000620000f282620000c5565b9050919050565b60006200010682620000e5565b9050919050565b6200011881620000f9565b81146200012457600080fd5b50565b60008151905062000138816200010d565b92915050565b60008060408385031215620001585762000157620000c0565b5b6000620001688582860162000127565b92505060206200017b8582860162000127565b9150509250929050565b6118d580620001956000396000f3fe608060405234801561001057600080fd5b50600436106101005760003560e01c8063b9ffa6a811610097578063de1b6d2a11610066578063de1b6d2a146102c6578063e682ca69146102f6578063f4cb34d414610326578063fde6c9fb1461035657610100565b8063b9ffa6a81461022a578063c5b38c0514610248578063ce7c2ac214610278578063d21220a7146102a857610100565b80639a5c77a8116100d35780639a5c77a81461018f5780639c8f9f23146101bf5780639cd441da146101f0578063a932492f1461020c57610100565b806325be124e146101055780633a98ef391461012357806368a455f114610141578063980d69d31461015f575b600080fd5b61010d610387565b60405161011a9190611104565b60405180910390f35b61012b6103ad565b6040516101389190611138565b60405180910390f35b6101496103b3565b6040516101569190611138565b60405180910390f35b61017960048036038101906101749190611184565b6103b9565b6040516101869190611138565b60405180910390f35b6101a960048036038101906101a49190611184565b6105e8565b6040516101b69190611138565b60405180910390f35b6101d960048036038101906101d49190611184565b61060c565b6040516101e79291906111b1565b60405180910390f35b61020a600480360381019061020591906111da565b6108bc565b005b610214610c1e565b6040516102219190611138565b60405180910390f35b610232610c24565b60405161023f9190611138565b60405180910390f35b610262600480360381019061025d9190611184565b610c2a565b60405161026f9190611138565b60405180910390f35b610292600480360381019061028d9190611258565b610cc3565b60405161029f9190611138565b60405180910390f35b6102b0610cdb565b6040516102bd9190611104565b60405180910390f35b6102e060048036038101906102db9190611184565b610cff565b6040516102ed9190611138565b60405180910390f35b610310600480360381019061030b9190611184565b610d23565b60405161031d9190611138565b60405180910390f35b610340600480360381019061033b9190611184565b610dcf565b60405161034d9190611138565b60405180910390f35b610370600480360381019061036b9190611184565b610ffe565b60405161037e9291906111b1565b60405180910390f35b600160009054906101000a900473ffffffffffffffffffffffffffffffffffffffff1681565b60055481565b60035481565b60006103c482610c2a565b9050600160009054906101000a900473ffffffffffffffffffffffffffffffffffffffff1673ffffffffffffffffffffffffffffffffffffffff166323b872dd3330856040518463ffffffff1660e01b815260040161042593929190611294565b602060405180830381600087803b15801561043f57600080fd5b505af1158015610453573d6000803e3d6000fd5b505050506040513d601f19601f820116820180604052508101906104779190611303565b50816003600082825461048a919061135f565b9250508190555080600260008282546104a391906113b5565b9250508190555060008054906101000a900473ffffffffffffffffffffffffffffffffffffffff1673ffffffffffffffffffffffffffffffffffffffff1663a9059cbb33836040518363ffffffff1660e01b81526004016105059291906113e9565b602060405180830381600087803b15801561051f57600080fd5b505af1158015610533573d6000803e3d6000fd5b505050506040513d601f19601f820116820180604052508101906105579190611303565b507f31c309ecd457dce7604a286d63a4b470e321337fb9877ce63c1109e1003c89f633600160009054906101000a900473ffffffffffffffffffffffffffffffffffffffff168460008054906101000a900473ffffffffffffffffffffffffffffffffffffffff1685600254600354426040516105db989796959493929190611412565b60405180910390a1919050565b6000600254826003546105fb9190611490565b6106059190611519565b9050919050565b600080600660003373ffffffffffffffffffffffffffffffffffffffff1673ffffffffffffffffffffffffffffffffffffffff16815260200190815260200160002054831115610691576040517f08c379a0000000000000000000000000000000000000000000000000000000008152600401610688906115cd565b60405180910390fd5b61069a83610ffe565b809250819350505082600660003373ffffffffffffffffffffffffffffffffffffffff1673ffffffffffffffffffffffffffffffffffffffff16815260200190815260200160002060008282546106f191906113b5565b92505081905550826005600082825461070a91906113b5565b92505081905550816002600082825461072391906113b5565b92505081905550806003600082825461073c91906113b5565b925050819055506003546002546107539190611490565b60048190555060008054906101000a900473ffffffffffffffffffffffffffffffffffffffff1673ffffffffffffffffffffffffffffffffffffffff1663a9059cbb33846040518363ffffffff1660e01b81526004016107b49291906113e9565b602060405180830381600087803b1580156107ce57600080fd5b505af11580156107e2573d6000803e3d6000fd5b505050506040513d601f19601f820116820180604052508101906108069190611303565b50600160009054906101000a900473ffffffffffffffffffffffffffffffffffffffff1673ffffffffffffffffffffffffffffffffffffffff1663a9059cbb33836040518363ffffffff1660e01b81526004016108649291906113e9565b602060405180830381600087803b15801561087e57600080fd5b505af1158015610892573d6000803e3d6000fd5b505050506040513d601f19601f820116820180604052508101906108b69190611303565b50915091565b60008054906101000a900473ffffffffffffffffffffffffffffffffffffffff1673ffffffffffffffffffffffffffffffffffffffff166323b872dd3330856040518463ffffffff1660e01b815260040161091993929190611294565b602060405180830381600087803b15801561093357600080fd5b505af1158015610947573d6000803e3d6000fd5b505050506040513d601f19601f8201168201806040525081019061096b9190611303565b6109aa576040517f08c379a00000000000000000000000000000000000000000000000000000000081526004016109a190611639565b60405180910390fd5b600160009054906101000a900473ffffffffffffffffffffffffffffffffffffffff1673ffffffffffffffffffffffffffffffffffffffff166323b872dd3330846040518463ffffffff1660e01b8152600401610a0993929190611294565b602060405180830381600087803b158015610a2357600080fd5b505af1158015610a37573d6000803e3d6000fd5b505050506040513d601f19601f82011682018060405250810190610a5b9190611303565b610a9a576040517f08c379a0000000000000000000000000000000000000000000000000000000008152600401610a91906116a5565b60405180910390fd5b6000806005541415610ac257670de0b6b3a76400006064610abb9190611490565b9050610b62565b600060025484600554610ad59190611490565b610adf9190611519565b9050600060035484600554610af49190611490565b610afe9190611519565b90506103e881610b0e9190611519565b6103e883610b1c9190611519565b14610b5c576040517f08c379a0000000000000000000000000000000000000000000000000000000008152600401610b5390611711565b60405180910390fd5b81925050505b8260026000828254610b74919061135f565b925050819055508160036000828254610b8d919061135f565b92505081905550600354600254610ba49190611490565b6004819055508060056000828254610bbc919061135f565b9250508190555080600660003373ffffffffffffffffffffffffffffffffffffffff1673ffffffffffffffffffffffffffffffffffffffff1681526020019081526020016000206000828254610c12919061135f565b92505081905550505050565b60045481565b60025481565b60008082600354610c3b919061135f565b9050600081600454610c4d9190611519565b905080600254610c5d91906113b5565b9250600254831415610c78578280610c7490611731565b9350505b6002548310610cbc576040517f08c379a0000000000000000000000000000000000000000000000000000000008152600401610cb3906117a7565b60405180910390fd5b5050919050565b60066020528060005260406000206000915090505481565b60008054906101000a900473ffffffffffffffffffffffffffffffffffffffff1681565b600060035482600254610d129190611490565b610d1c9190611519565b9050919050565b60008082600254610d34919061135f565b90506000811415610d485760009150610dc9565b600081600454610d589190611519565b905080600354610d6891906113b5565b9250600354831415610d83578280610d7f90611731565b9350505b6003548310610dc7576040517f08c379a0000000000000000000000000000000000000000000000000000000008152600401610dbe90611813565b60405180910390fd5b505b50919050565b6000610dda82610d23565b905060008054906101000a900473ffffffffffffffffffffffffffffffffffffffff1673ffffffffffffffffffffffffffffffffffffffff166323b872dd3330856040518463ffffffff1660e01b8152600401610e3993929190611294565b602060405180830381600087803b158015610e5357600080fd5b505af1158015610e67573d6000803e3d6000fd5b505050506040513d601f19601f82011682018060405250810190610e8b9190611303565b508160026000828254610e9e919061135f565b925050819055508060036000828254610eb791906113b5565b92505081905550600160009054906101000a900473ffffffffffffffffffffffffffffffffffffffff1673ffffffffffffffffffffffffffffffffffffffff1663a9059cbb33836040518363ffffffff1660e01b8152600401610f1b9291906113e9565b602060405180830381600087803b158015610f3557600080fd5b505af1158015610f49573d6000803e3d6000fd5b505050506040513d601f19601f82011682018060405250810190610f6d9190611303565b507f31c309ecd457dce7604a286d63a4b470e321337fb9877ce63c1109e1003c89f63360008054906101000a900473ffffffffffffffffffffffffffffffffffffffff1684600160009054906101000a900473ffffffffffffffffffffffffffffffffffffffff168560025460035442604051610ff1989796959493929190611412565b60405180910390a1919050565b600080600554831115611046576040517f08c379a000000000000000000000000000000000000000000000000000000000815260040161103d9061187f565b60405180910390fd5b600554600254846110579190611490565b6110619190611519565b9150600554600354846110749190611490565b61107e9190611519565b9050915091565b600073ffffffffffffffffffffffffffffffffffffffff82169050919050565b6000819050919050565b60006110ca6110c56110c084611085565b6110a5565b611085565b9050919050565b60006110dc826110af565b9050919050565b60006110ee826110d1565b9050919050565b6110fe816110e3565b82525050565b600060208201905061111960008301846110f5565b92915050565b6000819050919050565b6111328161111f565b82525050565b600060208201905061114d6000830184611129565b92915050565b600080fd5b6111618161111f565b811461116c57600080fd5b50565b60008135905061117e81611158565b92915050565b60006020828403121561119a57611199611153565b5b60006111a88482850161116f565b91505092915050565b60006040820190506111c66000830185611129565b6111d36020830184611129565b9392505050565b600080604083850312156111f1576111f0611153565b5b60006111ff8582860161116f565b92505060206112108582860161116f565b9150509250929050565b600061122582611085565b9050919050565b6112358161121a565b811461124057600080fd5b50565b6000813590506112528161122c565b92915050565b60006020828403121561126e5761126d611153565b5b600061127c84828501611243565b91505092915050565b61128e8161121a565b82525050565b60006060820190506112a96000830186611285565b6112b66020830185611285565b6112c36040830184611129565b949350505050565b60008115159050919050565b6112e0816112cb565b81146112eb57600080fd5b50565b6000815190506112fd816112d7565b92915050565b60006020828403121561131957611318611153565b5b6000611327848285016112ee565b91505092915050565b7f4e487b7100000000000000000000000000000000000000000000000000000000600052601160045260246000fd5b600061136a8261111f565b91506113758361111f565b9250827fffffffffffffffffffffffffffffffffffffffffffffffffffffffffffffffff038211156113aa576113a9611330565b5b828201905092915050565b60006113c08261111f565b91506113cb8361111f565b9250828210156113de576113dd611330565b5b828203905092915050565b60006040820190506113fe6000830185611285565b61140b6020830184611129565b9392505050565b600061010082019050611428600083018b611285565b611435602083018a611285565b6114426040830189611129565b61144f6060830188611285565b61145c6080830187611129565b61146960a0830186611129565b61147660c0830185611129565b61148360e0830184611129565b9998505050505050505050565b600061149b8261111f565b91506114a68361111f565b9250817fffffffffffffffffffffffffffffffffffffffffffffffffffffffffffffffff04831182151516156114df576114de611330565b5b828202905092915050565b7f4e487b7100000000000000000000000000000000000000000000000000000000600052601260045260246000fd5b60006115248261111f565b915061152f8361111f565b92508261153f5761153e6114ea565b5b828204905092915050565b600082825260208201905092915050565b7f63616e6e6f74207769746864726177206d6f726520736861726573207468616e60008201527f20796f7520686176650000000000000000000000000000000000000000000000602082015250565b60006115b760298361154a565b91506115c28261155b565b604082019050919050565b600060208201905081810360008301526115e6816115aa565b9050919050565b7f6661696c656420746f207472616e7366657220746f6b656e2031000000000000600082015250565b6000611623601a8361154a565b915061162e826115ed565b602082019050919050565b6000602082019050818103600083015261165281611616565b9050919050565b7f6661696c656420746f207472616e7366657220746f6b656e2032000000000000600082015250565b600061168f601a8361154a565b915061169a82611659565b602082019050919050565b600060208201905081810360008301526116be81611682565b9050919050565b7f6d7573742070726f7669646520657175616c20746f6b656e20616d6f756e7473600082015250565b60006116fb60208361154a565b9150611706826116c5565b602082019050919050565b6000602082019050818103600083015261172a816116ee565b9050919050565b600061173c8261111f565b915060008214156117505761174f611330565b5b600182039050919050565b7f7377617020616d6f756e7420746f206c61726765000000000000000000000000600082015250565b600061179160148361154a565b915061179c8261175b565b602082019050919050565b600060208201905081810360008301526117c081611784565b9050919050565b7f7377617020616d6f756e7420746f6f206c617267650000000000000000000000600082015250565b60006117fd60158361154a565b9150611808826117c7565b602082019050919050565b6000602082019050818103600083015261182c816117f0565b9050919050565b7f6d757374206265206c657373207468616e20746f74616c207368617265730000600082015250565b6000611869601e8361154a565b915061187482611833565b602082019050919050565b600060208201905081810360008301526118988161185c565b905091905056fea2646970667358221220c9ac3a472f63ca53e816c59e53226142f3c7a2aaaf7af6536fd48df77a52cc4c64736f6c63430008090033",
  "linkReferences": {},
  "deployedLinkReferences": {}
}