{
  "_format": "hh-sol-artifact-1",
  "contractName": "AMM",
  "sourceName": "contracts/AMM.sol",
  "abi": [
    {
      "inputs": [
        {
          "internalType": "contract Token",
          "name": "_token1",
          "type": "address"
        },
        {
          "internalType": "contract Token",
          "name": "_token2",
          "type": "address"
        },
        {
          "internalType": "contract Token",
          "name": "_token3",
          "type": "address"
        }
      ],
      "stateMutability": "nonpayable",
      "type": "constructor"
    },
    {
      "inputs": [],
      "name": "K",
      "outputs": [
        {
          "internalType": "uint256",
          "name": "",
          "type": "uint256"
        }
      ],
      "stateMutability": "view",
      "type": "function"
    },
    {
      "inputs": [],
      "name": "Token1",
      "outputs": [
        {
          "internalType": "contract Token",
          "name": "",
          "type": "address"
        }
      ],
      "stateMutability": "view",
      "type": "function"
    },
    {
      "inputs": [],
      "name": "Token2",
      "outputs": [
        {
          "internalType": "contract Token",
          "name": "",
          "type": "address"
        }
      ],
      "stateMutability": "view",
      "type": "function"
    },
    {
      "inputs": [],
      "name": "Token3",
      "outputs": [
        {
          "internalType": "contract Token",
          "name": "",
          "type": "address"
        }
      ],
      "stateMutability": "view",
      "type": "function"
    },
    {
      "inputs": [
        {
          "internalType": "uint256",
          "name": "_token1Amount",
          "type": "uint256"
        },
        {
          "internalType": "uint256",
          "name": "_token2Amount",
          "type": "uint256"
        },
        {
          "internalType": "uint256",
          "name": "_token3Amount",
          "type": "uint256"
        }
      ],
      "name": "addLiquidity",
      "outputs": [],
      "stateMutability": "nonpayable",
      "type": "function"
    },
    {
      "inputs": [
        {
          "internalType": "uint256",
          "name": "_token2Amount",
          "type": "uint256"
        }
      ],
      "name": "calculateToken1Deposit",
      "outputs": [
        {
          "internalType": "uint256",
          "name": "token1Amount",
          "type": "uint256"
        }
      ],
      "stateMutability": "view",
      "type": "function"
    },
    {
      "inputs": [
        {
          "internalType": "uint256",
          "name": "_token1Amount",
          "type": "uint256"
        }
      ],
      "name": "calculateToken2Deposit",
      "outputs": [
        {
          "internalType": "uint256",
          "name": "token2Amount",
          "type": "uint256"
        }
      ],
      "stateMutability": "view",
      "type": "function"
    },
    {
      "inputs": [
        {
          "internalType": "address",
          "name": "",
          "type": "address"
        }
      ],
      "name": "shares",
      "outputs": [
        {
          "internalType": "uint256",
          "name": "",
          "type": "uint256"
        }
      ],
      "stateMutability": "view",
      "type": "function"
    },
    {
      "inputs": [],
      "name": "token1Balance",
      "outputs": [
        {
          "internalType": "uint256",
          "name": "",
          "type": "uint256"
        }
      ],
      "stateMutability": "view",
      "type": "function"
    },
    {
      "inputs": [],
      "name": "token2Balance",
      "outputs": [
        {
          "internalType": "uint256",
          "name": "",
          "type": "uint256"
        }
      ],
      "stateMutability": "view",
      "type": "function"
    },
    {
      "inputs": [],
      "name": "token3Balance",
      "outputs": [
        {
          "internalType": "uint256",
          "name": "",
          "type": "uint256"
        }
      ],
      "stateMutability": "view",
      "type": "function"
    },
    {
      "inputs": [],
      "name": "totalShares",
      "outputs": [
        {
          "internalType": "uint256",
          "name": "",
          "type": "uint256"
        }
      ],
      "stateMutability": "view",
      "type": "function"
    }
  ],
  "bytecode": "0x60806040523480156200001157600080fd5b506040516200106f3803806200106f8339818101604052810190620000379190620001a8565b826000806101000a81548173ffffffffffffffffffffffffffffffffffffffff021916908373ffffffffffffffffffffffffffffffffffffffff16021790555081600160006101000a81548173ffffffffffffffffffffffffffffffffffffffff021916908373ffffffffffffffffffffffffffffffffffffffff16021790555080600260006101000a81548173ffffffffffffffffffffffffffffffffffffffff021916908373ffffffffffffffffffffffffffffffffffffffff1602179055506000600381905550600060048190555060006005819055506000600681905550600060078190555050505062000204565b600080fd5b600073ffffffffffffffffffffffffffffffffffffffff82169050919050565b60006200015c826200012f565b9050919050565b600062000170826200014f565b9050919050565b620001828162000163565b81146200018e57600080fd5b50565b600081519050620001a28162000177565b92915050565b600080600060608486031215620001c457620001c36200012a565b5b6000620001d48682870162000191565b9350506020620001e78682870162000191565b9250506040620001fa8682870162000191565b9150509250925092565b610e5b80620002146000396000f3fe608060405234801561001057600080fd5b50600436106100b45760003560e01c8063a932492f11610071578063a932492f1461017d578063b9ffa6a81461019b578063bbd8f83a146101b9578063ce7c2ac2146101d7578063de1b6d2a14610207578063fbcc8a0914610237576100b4565b80633a98ef39146100b9578063422f1043146100d757806368a455f1146100f357806396a8797e146101115780639a5c77a81461012f578063a4baecc91461015f575b600080fd5b6100c1610255565b6040516100ce919061083d565b60405180910390f35b6100f160048036038101906100ec9190610889565b61025b565b005b6100fb61073c565b604051610108919061083d565b60405180910390f35b610119610742565b604051610126919061095b565b60405180910390f35b61014960048036038101906101449190610976565b610766565b604051610156919061083d565b60405180910390f35b61016761078a565b604051610174919061095b565b60405180910390f35b6101856107b0565b604051610192919061083d565b60405180910390f35b6101a36107b6565b6040516101b0919061083d565b60405180910390f35b6101c16107bc565b6040516101ce919061095b565b60405180910390f35b6101f160048036038101906101ec91906109e1565b6107e2565b6040516101fe919061083d565b60405180910390f35b610221600480360381019061021c9190610976565b6107fa565b60405161022e919061083d565b60405180910390f35b61023f61081e565b60405161024c919061083d565b60405180910390f35b60075481565b60008054906101000a900473ffffffffffffffffffffffffffffffffffffffff1673ffffffffffffffffffffffffffffffffffffffff166323b872dd3330866040518463ffffffff1660e01b81526004016102b893929190610a1d565b602060405180830381600087803b1580156102d257600080fd5b505af11580156102e6573d6000803e3d6000fd5b505050506040513d601f19601f8201168201806040525081019061030a9190610a8c565b610349576040517f08c379a000000000000000000000000000000000000000000000000000000000815260040161034090610b16565b60405180910390fd5b600160009054906101000a900473ffffffffffffffffffffffffffffffffffffffff1673ffffffffffffffffffffffffffffffffffffffff166323b872dd3330856040518463ffffffff1660e01b81526004016103a893929190610a1d565b602060405180830381600087803b1580156103c257600080fd5b505af11580156103d6573d6000803e3d6000fd5b505050506040513d601f19601f820116820180604052508101906103fa9190610a8c565b610439576040517f08c379a000000000000000000000000000000000000000000000000000000000815260040161043090610b82565b60405180910390fd5b600260009054906101000a900473ffffffffffffffffffffffffffffffffffffffff1673ffffffffffffffffffffffffffffffffffffffff166323b872dd3330846040518463ffffffff1660e01b815260040161049893929190610a1d565b602060405180830381600087803b1580156104b257600080fd5b505af11580156104c6573d6000803e3d6000fd5b505050506040513d601f19601f820116820180604052508101906104ea9190610a8c565b610529576040517f08c379a000000000000000000000000000000000000000000000000000000000815260040161052090610bee565b60405180910390fd5b600080600754141561055157670de0b6b3a7640000606461054a9190610c3d565b9050610666565b6000600354856007546105649190610c3d565b61056e9190610cc6565b90506000600454856007546105839190610c3d565b61058d9190610cc6565b90506000600554856007546105a29190610c3d565b6105ac9190610cc6565b90506000600354141580156105c45750600060045414155b80156105d35750600060055414155b610612576040517f08c379a000000000000000000000000000000000000000000000000000000000815260040161060990610d43565b60405180910390fd5b818314801561062057508083145b61065f576040517f08c379a000000000000000000000000000000000000000000000000000000000815260040161065690610daf565b60405180910390fd5b8293505050505b83600360008282546106789190610dcf565b9250508190555082600460008282546106919190610dcf565b9250508190555081600560008282546106aa9190610dcf565b925050819055506004546003546106c19190610c3d565b60068190555080600760008282546106d99190610dcf565b9250508190555080600860003373ffffffffffffffffffffffffffffffffffffffff1673ffffffffffffffffffffffffffffffffffffffff168152602001908152602001600020600082825461072f9190610dcf565b9250508190555050505050565b60045481565b60008054906101000a900473ffffffffffffffffffffffffffffffffffffffff1681565b6000600354826004546107799190610c3d565b6107839190610cc6565b9050919050565b600160009054906101000a900473ffffffffffffffffffffffffffffffffffffffff1681565b60065481565b60035481565b600260009054906101000a900473ffffffffffffffffffffffffffffffffffffffff1681565b60086020528060005260406000206000915090505481565b60006004548260035461080d9190610c3d565b6108179190610cc6565b9050919050565b60055481565b6000819050919050565b61083781610824565b82525050565b6000602082019050610852600083018461082e565b92915050565b600080fd5b61086681610824565b811461087157600080fd5b50565b6000813590506108838161085d565b92915050565b6000806000606084860312156108a2576108a1610858565b5b60006108b086828701610874565b93505060206108c186828701610874565b92505060406108d286828701610874565b9150509250925092565b600073ffffffffffffffffffffffffffffffffffffffff82169050919050565b6000819050919050565b600061092161091c610917846108dc565b6108fc565b6108dc565b9050919050565b600061093382610906565b9050919050565b600061094582610928565b9050919050565b6109558161093a565b82525050565b6000602082019050610970600083018461094c565b92915050565b60006020828403121561098c5761098b610858565b5b600061099a84828501610874565b91505092915050565b60006109ae826108dc565b9050919050565b6109be816109a3565b81146109c957600080fd5b50565b6000813590506109db816109b5565b92915050565b6000602082840312156109f7576109f6610858565b5b6000610a05848285016109cc565b91505092915050565b610a17816109a3565b82525050565b6000606082019050610a326000830186610a0e565b610a3f6020830185610a0e565b610a4c604083018461082e565b949350505050565b60008115159050919050565b610a6981610a54565b8114610a7457600080fd5b50565b600081519050610a8681610a60565b92915050565b600060208284031215610aa257610aa1610858565b5b6000610ab084828501610a77565b91505092915050565b600082825260208201905092915050565b7f6661696c656420746f207472616e7366657220746f6b656e2031000000000000600082015250565b6000610b00601a83610ab9565b9150610b0b82610aca565b602082019050919050565b60006020820190508181036000830152610b2f81610af3565b9050919050565b7f6661696c656420746f207472616e7366657220746f6b656e2032000000000000600082015250565b6000610b6c601a83610ab9565b9150610b7782610b36565b602082019050919050565b60006020820190508181036000830152610b9b81610b5f565b9050919050565b7f6661696c656420746f207472616e7366657220746f6b656e2033000000000000600082015250565b6000610bd8601a83610ab9565b9150610be382610ba2565b602082019050919050565b60006020820190508181036000830152610c0781610bcb565b9050919050565b7f4e487b7100000000000000000000000000000000000000000000000000000000600052601160045260246000fd5b6000610c4882610824565b9150610c5383610824565b9250817fffffffffffffffffffffffffffffffffffffffffffffffffffffffffffffffff0483118215151615610c8c57610c8b610c0e565b5b828202905092915050565b7f4e487b7100000000000000000000000000000000000000000000000000000000600052601260045260246000fd5b6000610cd182610824565b9150610cdc83610824565b925082610cec57610ceb610c97565b5b828204905092915050565b7f4469766973696f6e206279207a65726f00000000000000000000000000000000600082015250565b6000610d2d601083610ab9565b9150610d3882610cf7565b602082019050919050565b60006020820190508181036000830152610d5c81610d20565b9050919050565b7f6d7573742070726f7669646520657175616c20746f6b656e20616d6f756e7400600082015250565b6000610d99601f83610ab9565b9150610da482610d63565b602082019050919050565b60006020820190508181036000830152610dc881610d8c565b9050919050565b6000610dda82610824565b9150610de583610824565b9250827fffffffffffffffffffffffffffffffffffffffffffffffffffffffffffffffff03821115610e1a57610e19610c0e565b5b82820190509291505056fea264697066735822122040f69fb9d2de307d445893cb0e2a3999fb28b1d8fa4bad3c7db58ec8c66dfdbd64736f6c63430008090033",
  "linkReferences": {},
  "deployedLinkReferences": {}
}