{
  "_format": "hh-sol-artifact-1",
  "contractName": "AMM",
  "sourceName": "contracts/AMM.sol",
  "abi": [
    {
      "inputs": [
        {
          "internalType": "contract Token",
          "name": "_token1",
          "type": "address"
        },
        {
          "internalType": "contract Token",
          "name": "_token2",
          "type": "address"
        }
      ],
      "stateMutability": "nonpayable",
      "type": "constructor"
    },
    {
      "anonymous": false,
      "inputs": [
        {
          "indexed": false,
          "internalType": "address",
          "name": "user",
          "type": "address"
        },
        {
          "indexed": false,
          "internalType": "address",
          "name": "tokenGive",
          "type": "address"
        },
        {
          "indexed": false,
          "internalType": "uint256",
          "name": "tokenGiveAmount",
          "type": "uint256"
        },
        {
          "indexed": false,
          "internalType": "address",
          "name": "tokenGet",
          "type": "address"
        },
        {
          "indexed": false,
          "internalType": "uint256",
          "name": "tokenGetAmount",
          "type": "uint256"
        },
        {
          "indexed": false,
          "internalType": "uint256",
          "name": "token1Balance",
          "type": "uint256"
        },
        {
          "indexed": false,
          "internalType": "uint256",
          "name": "token2Balance",
          "type": "uint256"
        },
        {
          "indexed": false,
          "internalType": "uint256",
          "name": "timestamps",
          "type": "uint256"
        }
      ],
      "name": "Swap",
      "type": "event"
    },
    {
      "inputs": [],
      "name": "K",
      "outputs": [
        {
          "internalType": "uint256",
          "name": "",
          "type": "uint256"
        }
      ],
      "stateMutability": "view",
      "type": "function"
    },
    {
      "inputs": [],
      "name": "Token1",
      "outputs": [
        {
          "internalType": "contract Token",
          "name": "",
          "type": "address"
        }
      ],
      "stateMutability": "view",
      "type": "function"
    },
    {
      "inputs": [],
      "name": "Token2",
      "outputs": [
        {
          "internalType": "contract Token",
          "name": "",
          "type": "address"
        }
      ],
      "stateMutability": "view",
      "type": "function"
    },
    {
      "inputs": [
        {
          "internalType": "uint256",
          "name": "_token1Amount",
          "type": "uint256"
        },
        {
          "internalType": "uint256",
          "name": "_token2Amount",
          "type": "uint256"
        }
      ],
      "name": "addLiquidity",
      "outputs": [],
      "stateMutability": "nonpayable",
      "type": "function"
    },
    {
      "inputs": [
        {
          "internalType": "uint256",
          "name": "_token2Amount",
          "type": "uint256"
        }
      ],
      "name": "calculateToken1Deposit",
      "outputs": [
        {
          "internalType": "uint256",
          "name": "token1Amount",
          "type": "uint256"
        }
      ],
      "stateMutability": "view",
      "type": "function"
    },
    {
      "inputs": [
        {
          "internalType": "uint256",
          "name": "_token1Amount",
          "type": "uint256"
        }
      ],
      "name": "calculateToken1Swap",
      "outputs": [
        {
          "internalType": "uint256",
          "name": "token2Amount",
          "type": "uint256"
        }
      ],
      "stateMutability": "view",
      "type": "function"
    },
    {
      "inputs": [
        {
          "internalType": "uint256",
          "name": "_token1Amount",
          "type": "uint256"
        }
      ],
      "name": "calculateToken2Deposit",
      "outputs": [
        {
          "internalType": "uint256",
          "name": "token2Amount",
          "type": "uint256"
        }
      ],
      "stateMutability": "view",
      "type": "function"
    },
    {
      "inputs": [
        {
          "internalType": "uint256",
          "name": "_token2Amount",
          "type": "uint256"
        }
      ],
      "name": "calculateToken2Swap",
      "outputs": [
        {
          "internalType": "uint256",
          "name": "token1Amount",
          "type": "uint256"
        }
      ],
      "stateMutability": "view",
      "type": "function"
    },
    {
      "inputs": [
        {
          "internalType": "uint256",
          "name": "_share",
          "type": "uint256"
        }
      ],
      "name": "calculateWithdrawAmount",
      "outputs": [
        {
          "internalType": "uint256",
          "name": "token1Amount",
          "type": "uint256"
        },
        {
          "internalType": "uint256",
          "name": "token2Amount",
          "type": "uint256"
        }
      ],
      "stateMutability": "view",
      "type": "function"
    },
    {
      "inputs": [
        {
          "internalType": "uint256",
          "name": "_share",
          "type": "uint256"
        }
      ],
      "name": "removeLiquidity",
      "outputs": [
        {
          "internalType": "uint256",
          "name": "token1Amount",
          "type": "uint256"
        },
        {
          "internalType": "uint256",
          "name": "token2Amount",
          "type": "uint256"
        }
      ],
      "stateMutability": "nonpayable",
      "type": "function"
    },
    {
      "inputs": [
        {
          "internalType": "address",
          "name": "",
          "type": "address"
        }
      ],
      "name": "shares",
      "outputs": [
        {
          "internalType": "uint256",
          "name": "",
          "type": "uint256"
        }
      ],
      "stateMutability": "view",
      "type": "function"
    },
    {
      "inputs": [
        {
          "internalType": "uint256",
          "name": "_token1Amount",
          "type": "uint256"
        }
      ],
      "name": "swapToken1",
      "outputs": [
        {
          "internalType": "uint256",
          "name": "token2Amount",
          "type": "uint256"
        }
      ],
      "stateMutability": "nonpayable",
      "type": "function"
    },
    {
      "inputs": [
        {
          "internalType": "uint256",
          "name": "_token2Amount",
          "type": "uint256"
        }
      ],
      "name": "swapToken2",
      "outputs": [
        {
          "internalType": "uint256",
          "name": "token1Amount",
          "type": "uint256"
        }
      ],
      "stateMutability": "nonpayable",
      "type": "function"
    },
    {
      "inputs": [],
      "name": "token1Balance",
      "outputs": [
        {
          "internalType": "uint256",
          "name": "",
          "type": "uint256"
        }
      ],
      "stateMutability": "view",
      "type": "function"
    },
    {
      "inputs": [],
      "name": "token2Balance",
      "outputs": [
        {
          "internalType": "uint256",
          "name": "",
          "type": "uint256"
        }
      ],
      "stateMutability": "view",
      "type": "function"
    },
    {
      "inputs": [],
      "name": "totalShares",
      "outputs": [
        {
          "internalType": "uint256",
          "name": "",
          "type": "uint256"
        }
      ],
      "stateMutability": "view",
      "type": "function"
    }
  ],
  "bytecode": "0x60806040523480156200001157600080fd5b5060405162001a0b38038062001a0b83398181016040528101906200003791906200015e565b816000806101000a81548173ffffffffffffffffffffffffffffffffffffffff021916908373ffffffffffffffffffffffffffffffffffffffff16021790555080600160006101000a81548173ffffffffffffffffffffffffffffffffffffffff021916908373ffffffffffffffffffffffffffffffffffffffff16021790555060006002819055506000600381905550600060048190555060006005819055505050620001a5565b600080fd5b600073ffffffffffffffffffffffffffffffffffffffff82169050919050565b60006200011282620000e5565b9050919050565b6000620001268262000105565b9050919050565b620001388162000119565b81146200014457600080fd5b50565b60008151905062000158816200012d565b92915050565b60008060408385031215620001785762000177620000e0565b5b6000620001888582860162000147565b92505060206200019b8582860162000147565b9150509250929050565b61185680620001b56000396000f3fe608060405234801561001057600080fd5b50600436106101005760003560e01c8063a932492f11610097578063de1b6d2a11610066578063de1b6d2a146102c6578063e682ca69146102f6578063f4cb34d414610326578063fde6c9fb1461035657610100565b8063a932492f1461022a578063b9ffa6a814610248578063c5b38c0514610266578063ce7c2ac21461029657610100565b80639a5c77a8116100d35780639a5c77a81461018f5780639c8f9f23146101bf5780639cd441da146101f0578063a4baecc91461020c57610100565b80633a98ef391461010557806368a455f11461012357806396a8797e14610141578063980d69d31461015f575b600080fd5b61010d610387565b60405161011a919061108b565b60405180910390f35b61012b61038d565b604051610138919061108b565b60405180910390f35b610149610393565b6040516101569190611125565b60405180910390f35b61017960048036038101906101749190611171565b6103b7565b604051610186919061108b565b60405180910390f35b6101a960048036038101906101a49190611171565b6105e6565b6040516101b6919061108b565b60405180910390f35b6101d960048036038101906101d49190611171565b61060a565b6040516101e792919061119e565b60405180910390f35b61020a600480360381019061020591906111c7565b6108ba565b005b610214610c1c565b6040516102219190611125565b60405180910390f35b610232610c42565b60405161023f919061108b565b60405180910390f35b610250610c48565b60405161025d919061108b565b60405180910390f35b610280600480360381019061027b9190611171565b610c4e565b60405161028d919061108b565b60405180910390f35b6102b060048036038101906102ab9190611245565b610ce7565b6040516102bd919061108b565b60405180910390f35b6102e060048036038101906102db9190611171565b610cff565b6040516102ed919061108b565b60405180910390f35b610310600480360381019061030b9190611171565b610d23565b60405161031d919061108b565b60405180910390f35b610340600480360381019061033b9190611171565b610dbc565b60405161034d919061108b565b60405180910390f35b610370600480360381019061036b9190611171565b610feb565b60405161037e92919061119e565b60405180910390f35b60055481565b60035481565b60008054906101000a900473ffffffffffffffffffffffffffffffffffffffff1681565b60006103c282610c4e565b9050600160009054906101000a900473ffffffffffffffffffffffffffffffffffffffff1673ffffffffffffffffffffffffffffffffffffffff166323b872dd3330856040518463ffffffff1660e01b815260040161042393929190611281565b602060405180830381600087803b15801561043d57600080fd5b505af1158015610451573d6000803e3d6000fd5b505050506040513d601f19601f8201168201806040525081019061047591906112f0565b508160036000828254610488919061134c565b9250508190555080600260008282546104a191906113a2565b9250508190555060008054906101000a900473ffffffffffffffffffffffffffffffffffffffff1673ffffffffffffffffffffffffffffffffffffffff1663a9059cbb33836040518363ffffffff1660e01b81526004016105039291906113d6565b602060405180830381600087803b15801561051d57600080fd5b505af1158015610531573d6000803e3d6000fd5b505050506040513d601f19601f8201168201806040525081019061055591906112f0565b507f31c309ecd457dce7604a286d63a4b470e321337fb9877ce63c1109e1003c89f633600160009054906101000a900473ffffffffffffffffffffffffffffffffffffffff168460008054906101000a900473ffffffffffffffffffffffffffffffffffffffff1685600254600354426040516105d99897969594939291906113ff565b60405180910390a1919050565b6000600254826003546105f9919061147d565b6106039190611506565b9050919050565b600080600660003373ffffffffffffffffffffffffffffffffffffffff1673ffffffffffffffffffffffffffffffffffffffff1681526020019081526020016000205483111561068f576040517f08c379a0000000000000000000000000000000000000000000000000000000008152600401610686906115ba565b60405180910390fd5b61069883610feb565b809250819350505082600660003373ffffffffffffffffffffffffffffffffffffffff1673ffffffffffffffffffffffffffffffffffffffff16815260200190815260200160002060008282546106ef91906113a2565b92505081905550826005600082825461070891906113a2565b92505081905550816002600082825461072191906113a2565b92505081905550806003600082825461073a91906113a2565b92505081905550600354600254610751919061147d565b60048190555060008054906101000a900473ffffffffffffffffffffffffffffffffffffffff1673ffffffffffffffffffffffffffffffffffffffff1663a9059cbb33846040518363ffffffff1660e01b81526004016107b29291906113d6565b602060405180830381600087803b1580156107cc57600080fd5b505af11580156107e0573d6000803e3d6000fd5b505050506040513d601f19601f8201168201806040525081019061080491906112f0565b50600160009054906101000a900473ffffffffffffffffffffffffffffffffffffffff1673ffffffffffffffffffffffffffffffffffffffff1663a9059cbb33836040518363ffffffff1660e01b81526004016108629291906113d6565b602060405180830381600087803b15801561087c57600080fd5b505af1158015610890573d6000803e3d6000fd5b505050506040513d601f19601f820116820180604052508101906108b491906112f0565b50915091565b60008054906101000a900473ffffffffffffffffffffffffffffffffffffffff1673ffffffffffffffffffffffffffffffffffffffff166323b872dd3330856040518463ffffffff1660e01b815260040161091793929190611281565b602060405180830381600087803b15801561093157600080fd5b505af1158015610945573d6000803e3d6000fd5b505050506040513d601f19601f8201168201806040525081019061096991906112f0565b6109a8576040517f08c379a000000000000000000000000000000000000000000000000000000000815260040161099f90611626565b60405180910390fd5b600160009054906101000a900473ffffffffffffffffffffffffffffffffffffffff1673ffffffffffffffffffffffffffffffffffffffff166323b872dd3330846040518463ffffffff1660e01b8152600401610a0793929190611281565b602060405180830381600087803b158015610a2157600080fd5b505af1158015610a35573d6000803e3d6000fd5b505050506040513d601f19601f82011682018060405250810190610a5991906112f0565b610a98576040517f08c379a0000000000000000000000000000000000000000000000000000000008152600401610a8f90611692565b60405180910390fd5b6000806005541415610ac057670de0b6b3a76400006064610ab9919061147d565b9050610b60565b600060025484600554610ad3919061147d565b610add9190611506565b9050600060035484600554610af2919061147d565b610afc9190611506565b90506103e881610b0c9190611506565b6103e883610b1a9190611506565b14610b5a576040517f08c379a0000000000000000000000000000000000000000000000000000000008152600401610b51906116fe565b60405180910390fd5b81925050505b8260026000828254610b72919061134c565b925050819055508160036000828254610b8b919061134c565b92505081905550600354600254610ba2919061147d565b6004819055508060056000828254610bba919061134c565b9250508190555080600660003373ffffffffffffffffffffffffffffffffffffffff1673ffffffffffffffffffffffffffffffffffffffff1681526020019081526020016000206000828254610c10919061134c565b92505081905550505050565b600160009054906101000a900473ffffffffffffffffffffffffffffffffffffffff1681565b60045481565b60025481565b60008082600354610c5f919061134c565b9050600081600454610c719190611506565b905080600254610c8191906113a2565b9050600254831415610c9c578280610c989061171e565b9350505b6002548310610ce0576040517f08c379a0000000000000000000000000000000000000000000000000000000008152600401610cd790611794565b60405180910390fd5b5050919050565b60066020528060005260406000206000915090505481565b600060035482600254610d12919061147d565b610d1c9190611506565b9050919050565b60008082600254610d34919061134c565b9050600081600454610d469190611506565b905080600354610d5691906113a2565b9050600354831415610d71578280610d6d9061171e565b9350505b6003548310610db5576040517f08c379a0000000000000000000000000000000000000000000000000000000008152600401610dac90611794565b60405180910390fd5b5050919050565b6000610dc782610d23565b905060008054906101000a900473ffffffffffffffffffffffffffffffffffffffff1673ffffffffffffffffffffffffffffffffffffffff166323b872dd3330856040518463ffffffff1660e01b8152600401610e2693929190611281565b602060405180830381600087803b158015610e4057600080fd5b505af1158015610e54573d6000803e3d6000fd5b505050506040513d601f19601f82011682018060405250810190610e7891906112f0565b508160026000828254610e8b919061134c565b925050819055508060036000828254610ea491906113a2565b92505081905550600160009054906101000a900473ffffffffffffffffffffffffffffffffffffffff1673ffffffffffffffffffffffffffffffffffffffff1663a9059cbb33836040518363ffffffff1660e01b8152600401610f089291906113d6565b602060405180830381600087803b158015610f2257600080fd5b505af1158015610f36573d6000803e3d6000fd5b505050506040513d601f19601f82011682018060405250810190610f5a91906112f0565b507f31c309ecd457dce7604a286d63a4b470e321337fb9877ce63c1109e1003c89f63360008054906101000a900473ffffffffffffffffffffffffffffffffffffffff1684600160009054906101000a900473ffffffffffffffffffffffffffffffffffffffff168560025460035442604051610fde9897969594939291906113ff565b60405180910390a1919050565b600080600554831115611033576040517f08c379a000000000000000000000000000000000000000000000000000000000815260040161102a90611800565b60405180910390fd5b60055460025484611044919061147d565b61104e9190611506565b915060055460035484611061919061147d565b61106b9190611506565b9050915091565b6000819050919050565b61108581611072565b82525050565b60006020820190506110a0600083018461107c565b92915050565b600073ffffffffffffffffffffffffffffffffffffffff82169050919050565b6000819050919050565b60006110eb6110e66110e1846110a6565b6110c6565b6110a6565b9050919050565b60006110fd826110d0565b9050919050565b600061110f826110f2565b9050919050565b61111f81611104565b82525050565b600060208201905061113a6000830184611116565b92915050565b600080fd5b61114e81611072565b811461115957600080fd5b50565b60008135905061116b81611145565b92915050565b60006020828403121561118757611186611140565b5b60006111958482850161115c565b91505092915050565b60006040820190506111b3600083018561107c565b6111c0602083018461107c565b9392505050565b600080604083850312156111de576111dd611140565b5b60006111ec8582860161115c565b92505060206111fd8582860161115c565b9150509250929050565b6000611212826110a6565b9050919050565b61122281611207565b811461122d57600080fd5b50565b60008135905061123f81611219565b92915050565b60006020828403121561125b5761125a611140565b5b600061126984828501611230565b91505092915050565b61127b81611207565b82525050565b60006060820190506112966000830186611272565b6112a36020830185611272565b6112b0604083018461107c565b949350505050565b60008115159050919050565b6112cd816112b8565b81146112d857600080fd5b50565b6000815190506112ea816112c4565b92915050565b60006020828403121561130657611305611140565b5b6000611314848285016112db565b91505092915050565b7f4e487b7100000000000000000000000000000000000000000000000000000000600052601160045260246000fd5b600061135782611072565b915061136283611072565b9250827fffffffffffffffffffffffffffffffffffffffffffffffffffffffffffffffff038211156113975761139661131d565b5b828201905092915050565b60006113ad82611072565b91506113b883611072565b9250828210156113cb576113ca61131d565b5b828203905092915050565b60006040820190506113eb6000830185611272565b6113f8602083018461107c565b9392505050565b600061010082019050611415600083018b611272565b611422602083018a611272565b61142f604083018961107c565b61143c6060830188611272565b611449608083018761107c565b61145660a083018661107c565b61146360c083018561107c565b61147060e083018461107c565b9998505050505050505050565b600061148882611072565b915061149383611072565b9250817fffffffffffffffffffffffffffffffffffffffffffffffffffffffffffffffff04831182151516156114cc576114cb61131d565b5b828202905092915050565b7f4e487b7100000000000000000000000000000000000000000000000000000000600052601260045260246000fd5b600061151182611072565b915061151c83611072565b92508261152c5761152b6114d7565b5b828204905092915050565b600082825260208201905092915050565b7f63616e6e6f74207769746864726177206d6f726520736861726573207468616e60008201527f20796f7520686176650000000000000000000000000000000000000000000000602082015250565b60006115a4602983611537565b91506115af82611548565b604082019050919050565b600060208201905081810360008301526115d381611597565b9050919050565b7f6661696c656420746f207472616e7366657220746f6b656e2031000000000000600082015250565b6000611610601a83611537565b915061161b826115da565b602082019050919050565b6000602082019050818103600083015261163f81611603565b9050919050565b7f6661696c656420746f207472616e7366657220746f6b656e2032000000000000600082015250565b600061167c601a83611537565b915061168782611646565b602082019050919050565b600060208201905081810360008301526116ab8161166f565b9050919050565b7f6d7573742070726f7669646520657175616c20746f6b656e20616d6f756e7473600082015250565b60006116e8602083611537565b91506116f3826116b2565b602082019050919050565b60006020820190508181036000830152611717816116db565b9050919050565b600061172982611072565b9150600082141561173d5761173c61131d565b5b600182039050919050565b7f7377617020616d6f756e7420697320746f6f206c617267650000000000000000600082015250565b600061177e601883611537565b915061178982611748565b602082019050919050565b600060208201905081810360008301526117ad81611771565b9050919050565b7f6d757374206265206c657373207468616e20746f74616c207368617265730000600082015250565b60006117ea601e83611537565b91506117f5826117b4565b602082019050919050565b60006020820190508181036000830152611819816117dd565b905091905056fea26469706673582212202ae92687fc20726fbb6898fb0cc8ec1f15026141911a51f8d8506f152370af9864736f6c63430008090033",
  "linkReferences": {},
  "deployedLinkReferences": {}
}