{
  "_format": "hh-sol-artifact-1",
  "contractName": "AMM",
  "sourceName": "contracts/AMM.sol",
  "abi": [
    {
      "inputs": [
        {
          "internalType": "contract Token",
          "name": "_token1",
          "type": "address"
        },
        {
          "internalType": "contract Token",
          "name": "_token2",
          "type": "address"
        },
        {
          "internalType": "contract Token",
          "name": "_token3",
          "type": "address"
        }
      ],
      "stateMutability": "nonpayable",
      "type": "constructor"
    },
    {
      "inputs": [],
      "name": "K",
      "outputs": [
        {
          "internalType": "uint256",
          "name": "",
          "type": "uint256"
        }
      ],
      "stateMutability": "view",
      "type": "function"
    },
    {
      "inputs": [],
      "name": "Token1",
      "outputs": [
        {
          "internalType": "contract Token",
          "name": "",
          "type": "address"
        }
      ],
      "stateMutability": "view",
      "type": "function"
    },
    {
      "inputs": [],
      "name": "Token2",
      "outputs": [
        {
          "internalType": "contract Token",
          "name": "",
          "type": "address"
        }
      ],
      "stateMutability": "view",
      "type": "function"
    },
    {
      "inputs": [],
      "name": "Token3",
      "outputs": [
        {
          "internalType": "contract Token",
          "name": "",
          "type": "address"
        }
      ],
      "stateMutability": "view",
      "type": "function"
    },
    {
      "inputs": [
        {
          "internalType": "uint256",
          "name": "_token1Amount",
          "type": "uint256"
        },
        {
          "internalType": "uint256",
          "name": "_token2Amount",
          "type": "uint256"
        },
        {
          "internalType": "uint256",
          "name": "_token3Amount",
          "type": "uint256"
        }
      ],
      "name": "addLiquidity",
      "outputs": [],
      "stateMutability": "nonpayable",
      "type": "function"
    },
    {
      "inputs": [
        {
          "internalType": "uint256",
          "name": "_token2Amount",
          "type": "uint256"
        }
      ],
      "name": "calculateToken1Deposit",
      "outputs": [
        {
          "internalType": "uint256",
          "name": "token1Amount",
          "type": "uint256"
        }
      ],
      "stateMutability": "view",
      "type": "function"
    },
    {
      "inputs": [
        {
          "internalType": "uint256",
          "name": "_token1Amount",
          "type": "uint256"
        }
      ],
      "name": "calculateToken1Swap",
      "outputs": [
        {
          "internalType": "uint256",
          "name": "token2Amount",
          "type": "uint256"
        }
      ],
      "stateMutability": "view",
      "type": "function"
    },
    {
      "inputs": [
        {
          "internalType": "uint256",
          "name": "_token1Amount",
          "type": "uint256"
        }
      ],
      "name": "calculateToken2Deposit",
      "outputs": [
        {
          "internalType": "uint256",
          "name": "token2Amount",
          "type": "uint256"
        }
      ],
      "stateMutability": "view",
      "type": "function"
    },
    {
      "inputs": [
        {
          "internalType": "address",
          "name": "",
          "type": "address"
        }
      ],
      "name": "shares",
      "outputs": [
        {
          "internalType": "uint256",
          "name": "",
          "type": "uint256"
        }
      ],
      "stateMutability": "view",
      "type": "function"
    },
    {
      "inputs": [
        {
          "internalType": "uint256",
          "name": "_token1Amount",
          "type": "uint256"
        }
      ],
      "name": "swapToken1",
      "outputs": [
        {
          "internalType": "uint256",
          "name": "token2Amount",
          "type": "uint256"
        }
      ],
      "stateMutability": "nonpayable",
      "type": "function"
    },
    {
      "inputs": [],
      "name": "token1Balance",
      "outputs": [
        {
          "internalType": "uint256",
          "name": "",
          "type": "uint256"
        }
      ],
      "stateMutability": "view",
      "type": "function"
    },
    {
      "inputs": [],
      "name": "token2Balance",
      "outputs": [
        {
          "internalType": "uint256",
          "name": "",
          "type": "uint256"
        }
      ],
      "stateMutability": "view",
      "type": "function"
    },
    {
      "inputs": [],
      "name": "token3Balance",
      "outputs": [
        {
          "internalType": "uint256",
          "name": "",
          "type": "uint256"
        }
      ],
      "stateMutability": "view",
      "type": "function"
    },
    {
      "inputs": [],
      "name": "totalShares",
      "outputs": [
        {
          "internalType": "uint256",
          "name": "",
          "type": "uint256"
        }
      ],
      "stateMutability": "view",
      "type": "function"
    }
  ],
  "bytecode": "0x60806040523480156200001157600080fd5b5060405162001435380380620014358339818101604052810190620000379190620001a8565b826000806101000a81548173ffffffffffffffffffffffffffffffffffffffff021916908373ffffffffffffffffffffffffffffffffffffffff16021790555081600160006101000a81548173ffffffffffffffffffffffffffffffffffffffff021916908373ffffffffffffffffffffffffffffffffffffffff16021790555080600260006101000a81548173ffffffffffffffffffffffffffffffffffffffff021916908373ffffffffffffffffffffffffffffffffffffffff1602179055506000600381905550600060048190555060006005819055506000600681905550600060078190555050505062000204565b600080fd5b600073ffffffffffffffffffffffffffffffffffffffff82169050919050565b60006200015c826200012f565b9050919050565b600062000170826200014f565b9050919050565b620001828162000163565b81146200018e57600080fd5b50565b600081519050620001a28162000177565b92915050565b600080600060608486031215620001c457620001c36200012a565b5b6000620001d48682870162000191565b9350506020620001e78682870162000191565b9250506040620001fa8682870162000191565b9150509250925092565b61122180620002146000396000f3fe608060405234801561001057600080fd5b50600436106100ea5760003560e01c8063b9ffa6a81161008c578063de1b6d2a11610066578063de1b6d2a1461023d578063e682ca691461026d578063f4cb34d41461029d578063fbcc8a09146102cd576100ea565b8063b9ffa6a8146101d1578063bbd8f83a146101ef578063ce7c2ac21461020d576100ea565b806396a8797e116100c857806396a8797e146101475780639a5c77a814610165578063a4baecc914610195578063a932492f146101b3576100ea565b80633a98ef39146100ef578063422f10431461010d57806368a455f114610129575b600080fd5b6100f76102eb565b6040516101049190610b10565b60405180910390f35b61012760048036038101906101229190610b5c565b6102f1565b005b6101316107d2565b60405161013e9190610b10565b60405180910390f35b61014f6107d8565b60405161015c9190610c2e565b60405180910390f35b61017f600480360381019061017a9190610c49565b6107fc565b60405161018c9190610b10565b60405180910390f35b61019d610820565b6040516101aa9190610c2e565b60405180910390f35b6101bb610846565b6040516101c89190610b10565b60405180910390f35b6101d961084c565b6040516101e69190610b10565b60405180910390f35b6101f7610852565b6040516102049190610c2e565b60405180910390f35b61022760048036038101906102229190610cb4565b610878565b6040516102349190610b10565b60405180910390f35b61025760048036038101906102529190610c49565b610890565b6040516102649190610b10565b60405180910390f35b61028760048036038101906102829190610c49565b6108b4565b6040516102949190610b10565b60405180910390f35b6102b760048036038101906102b29190610c49565b61094d565b6040516102c49190610b10565b60405180910390f35b6102d5610af1565b6040516102e29190610b10565b60405180910390f35b60075481565b60008054906101000a900473ffffffffffffffffffffffffffffffffffffffff1673ffffffffffffffffffffffffffffffffffffffff166323b872dd3330866040518463ffffffff1660e01b815260040161034e93929190610cf0565b602060405180830381600087803b15801561036857600080fd5b505af115801561037c573d6000803e3d6000fd5b505050506040513d601f19601f820116820180604052508101906103a09190610d5f565b6103df576040517f08c379a00000000000000000000000000000000000000000000000000000000081526004016103d690610de9565b60405180910390fd5b600160009054906101000a900473ffffffffffffffffffffffffffffffffffffffff1673ffffffffffffffffffffffffffffffffffffffff166323b872dd3330856040518463ffffffff1660e01b815260040161043e93929190610cf0565b602060405180830381600087803b15801561045857600080fd5b505af115801561046c573d6000803e3d6000fd5b505050506040513d601f19601f820116820180604052508101906104909190610d5f565b6104cf576040517f08c379a00000000000000000000000000000000000000000000000000000000081526004016104c690610e55565b60405180910390fd5b600260009054906101000a900473ffffffffffffffffffffffffffffffffffffffff1673ffffffffffffffffffffffffffffffffffffffff166323b872dd3330846040518463ffffffff1660e01b815260040161052e93929190610cf0565b602060405180830381600087803b15801561054857600080fd5b505af115801561055c573d6000803e3d6000fd5b505050506040513d601f19601f820116820180604052508101906105809190610d5f565b6105bf576040517f08c379a00000000000000000000000000000000000000000000000000000000081526004016105b690610ec1565b60405180910390fd5b60008060075414156105e757670de0b6b3a764000060646105e09190610f10565b90506106fc565b6000600354856007546105fa9190610f10565b6106049190610f99565b90506000600454856007546106199190610f10565b6106239190610f99565b90506000600554856007546106389190610f10565b6106429190610f99565b905060006003541415801561065a5750600060045414155b80156106695750600060055414155b6106a8576040517f08c379a000000000000000000000000000000000000000000000000000000000815260040161069f90611016565b60405180910390fd5b81831480156106b657508083145b6106f5576040517f08c379a00000000000000000000000000000000000000000000000000000000081526004016106ec90611082565b60405180910390fd5b8293505050505b836003600082825461070e91906110a2565b92505081905550826004600082825461072791906110a2565b92505081905550816005600082825461074091906110a2565b925050819055506004546003546107579190610f10565b600681905550806007600082825461076f91906110a2565b9250508190555080600860003373ffffffffffffffffffffffffffffffffffffffff1673ffffffffffffffffffffffffffffffffffffffff16815260200190815260200160002060008282546107c591906110a2565b9250508190555050505050565b60045481565b60008054906101000a900473ffffffffffffffffffffffffffffffffffffffff1681565b60006003548260045461080f9190610f10565b6108199190610f99565b9050919050565b600160009054906101000a900473ffffffffffffffffffffffffffffffffffffffff1681565b60065481565b60035481565b600260009054906101000a900473ffffffffffffffffffffffffffffffffffffffff1681565b60086020528060005260406000206000915090505481565b6000600454826003546108a39190610f10565b6108ad9190610f99565b9050919050565b600080826003546108c591906110a2565b90506000816006546108d79190610f99565b9050806004546108e791906110f8565b90506004548314156109025782806108fe9061112c565b9350505b6004548310610946576040517f08c379a000000000000000000000000000000000000000000000000000000000815260040161093d906111a2565b60405180910390fd5b5050919050565b6000610958826108b4565b905060008054906101000a900473ffffffffffffffffffffffffffffffffffffffff1673ffffffffffffffffffffffffffffffffffffffff166323b872dd3330856040518463ffffffff1660e01b81526004016109b793929190610cf0565b602060405180830381600087803b1580156109d157600080fd5b505af11580156109e5573d6000803e3d6000fd5b505050506040513d601f19601f82011682018060405250810190610a099190610d5f565b508160036000828254610a1c91906110a2565b925050819055508060046000828254610a3591906110f8565b92505081905550600160009054906101000a900473ffffffffffffffffffffffffffffffffffffffff1673ffffffffffffffffffffffffffffffffffffffff1663a9059cbb33836040518363ffffffff1660e01b8152600401610a999291906111c2565b602060405180830381600087803b158015610ab357600080fd5b505af1158015610ac7573d6000803e3d6000fd5b505050506040513d601f19601f82011682018060405250810190610aeb9190610d5f565b50919050565b60055481565b6000819050919050565b610b0a81610af7565b82525050565b6000602082019050610b256000830184610b01565b92915050565b600080fd5b610b3981610af7565b8114610b4457600080fd5b50565b600081359050610b5681610b30565b92915050565b600080600060608486031215610b7557610b74610b2b565b5b6000610b8386828701610b47565b9350506020610b9486828701610b47565b9250506040610ba586828701610b47565b9150509250925092565b600073ffffffffffffffffffffffffffffffffffffffff82169050919050565b6000819050919050565b6000610bf4610bef610bea84610baf565b610bcf565b610baf565b9050919050565b6000610c0682610bd9565b9050919050565b6000610c1882610bfb565b9050919050565b610c2881610c0d565b82525050565b6000602082019050610c436000830184610c1f565b92915050565b600060208284031215610c5f57610c5e610b2b565b5b6000610c6d84828501610b47565b91505092915050565b6000610c8182610baf565b9050919050565b610c9181610c76565b8114610c9c57600080fd5b50565b600081359050610cae81610c88565b92915050565b600060208284031215610cca57610cc9610b2b565b5b6000610cd884828501610c9f565b91505092915050565b610cea81610c76565b82525050565b6000606082019050610d056000830186610ce1565b610d126020830185610ce1565b610d1f6040830184610b01565b949350505050565b60008115159050919050565b610d3c81610d27565b8114610d4757600080fd5b50565b600081519050610d5981610d33565b92915050565b600060208284031215610d7557610d74610b2b565b5b6000610d8384828501610d4a565b91505092915050565b600082825260208201905092915050565b7f6661696c656420746f207472616e7366657220746f6b656e2031000000000000600082015250565b6000610dd3601a83610d8c565b9150610dde82610d9d565b602082019050919050565b60006020820190508181036000830152610e0281610dc6565b9050919050565b7f6661696c656420746f207472616e7366657220746f6b656e2032000000000000600082015250565b6000610e3f601a83610d8c565b9150610e4a82610e09565b602082019050919050565b60006020820190508181036000830152610e6e81610e32565b9050919050565b7f6661696c656420746f207472616e7366657220746f6b656e2033000000000000600082015250565b6000610eab601a83610d8c565b9150610eb682610e75565b602082019050919050565b60006020820190508181036000830152610eda81610e9e565b9050919050565b7f4e487b7100000000000000000000000000000000000000000000000000000000600052601160045260246000fd5b6000610f1b82610af7565b9150610f2683610af7565b9250817fffffffffffffffffffffffffffffffffffffffffffffffffffffffffffffffff0483118215151615610f5f57610f5e610ee1565b5b828202905092915050565b7f4e487b7100000000000000000000000000000000000000000000000000000000600052601260045260246000fd5b6000610fa482610af7565b9150610faf83610af7565b925082610fbf57610fbe610f6a565b5b828204905092915050565b7f4469766973696f6e206279207a65726f00000000000000000000000000000000600082015250565b6000611000601083610d8c565b915061100b82610fca565b602082019050919050565b6000602082019050818103600083015261102f81610ff3565b9050919050565b7f6d7573742070726f7669646520657175616c20746f6b656e20616d6f756e7400600082015250565b600061106c601f83610d8c565b915061107782611036565b602082019050919050565b6000602082019050818103600083015261109b8161105f565b9050919050565b60006110ad82610af7565b91506110b883610af7565b9250827fffffffffffffffffffffffffffffffffffffffffffffffffffffffffffffffff038211156110ed576110ec610ee1565b5b828201905092915050565b600061110382610af7565b915061110e83610af7565b92508282101561112157611120610ee1565b5b828203905092915050565b600061113782610af7565b9150600082141561114b5761114a610ee1565b5b600182039050919050565b7f7377617020616d6f756e7420697320746f6f206c617267650000000000000000600082015250565b600061118c601883610d8c565b915061119782611156565b602082019050919050565b600060208201905081810360008301526111bb8161117f565b9050919050565b60006040820190506111d76000830185610ce1565b6111e46020830184610b01565b939250505056fea26469706673582212208b25d543b2b210c973c361c0f5c5f9242acbeaed8b1442dee83f1b226304ec2b64736f6c63430008090033",
  "linkReferences": {},
  "deployedLinkReferences": {}
}