{
  "_format": "hh-sol-artifact-1",
  "contractName": "AMM",
  "sourceName": "contracts/AMM.sol",
  "abi": [
    {
      "inputs": [
        {
          "internalType": "contract Token",
          "name": "_token1",
          "type": "address"
        },
        {
          "internalType": "contract Token",
          "name": "_token2",
          "type": "address"
        }
      ],
      "stateMutability": "nonpayable",
      "type": "constructor"
    },
    {
      "inputs": [],
      "name": "Token1",
      "outputs": [
        {
          "internalType": "contract Token",
          "name": "",
          "type": "address"
        }
      ],
      "stateMutability": "view",
      "type": "function"
    },
    {
      "inputs": [],
      "name": "Token2",
      "outputs": [
        {
          "internalType": "contract Token",
          "name": "",
          "type": "address"
        }
      ],
      "stateMutability": "view",
      "type": "function"
    },
    {
      "inputs": [
        {
          "internalType": "uint256",
          "name": "_token1Amount",
          "type": "uint256"
        },
        {
          "internalType": "uint256",
          "name": "_token2Amount",
          "type": "uint256"
        }
      ],
      "name": "addLiquidity",
      "outputs": [],
      "stateMutability": "nonpayable",
      "type": "function"
    }
  ],
  "bytecode": "0x608060405234801561001057600080fd5b506040516107483803806107488339818101604052810190610032919061012f565b816000806101000a81548173ffffffffffffffffffffffffffffffffffffffff021916908373ffffffffffffffffffffffffffffffffffffffff16021790555080600160006101000a81548173ffffffffffffffffffffffffffffffffffffffff021916908373ffffffffffffffffffffffffffffffffffffffff160217905550505061016f565b600080fd5b600073ffffffffffffffffffffffffffffffffffffffff82169050919050565b60006100ea826100bf565b9050919050565b60006100fc826100df565b9050919050565b61010c816100f1565b811461011757600080fd5b50565b60008151905061012981610103565b92915050565b60008060408385031215610146576101456100ba565b5b60006101548582860161011a565b92505060206101658582860161011a565b9150509250929050565b6105ca8061017e6000396000f3fe608060405234801561001057600080fd5b50600436106100415760003560e01c806396a8797e146100465780639cd441da14610064578063a4baecc914610080575b600080fd5b61004e61009e565b60405161005b9190610349565b60405180910390f35b61007e6004803603810190610079919061039f565b6100c2565b005b6100886102a4565b6040516100959190610349565b60405180910390f35b60008054906101000a900473ffffffffffffffffffffffffffffffffffffffff1681565b60008054906101000a900473ffffffffffffffffffffffffffffffffffffffff1673ffffffffffffffffffffffffffffffffffffffff166323b872dd3330856040518463ffffffff1660e01b815260040161011f9392919061040f565b602060405180830381600087803b15801561013957600080fd5b505af115801561014d573d6000803e3d6000fd5b505050506040513d601f19601f82011682018060405250810190610171919061047e565b6101b0576040517f08c379a00000000000000000000000000000000000000000000000000000000081526004016101a790610508565b60405180910390fd5b600160009054906101000a900473ffffffffffffffffffffffffffffffffffffffff1673ffffffffffffffffffffffffffffffffffffffff166323b872dd3330846040518463ffffffff1660e01b815260040161020f9392919061040f565b602060405180830381600087803b15801561022957600080fd5b505af115801561023d573d6000803e3d6000fd5b505050506040513d601f19601f82011682018060405250810190610261919061047e565b6102a0576040517f08c379a000000000000000000000000000000000000000000000000000000000815260040161029790610574565b60405180910390fd5b5050565b600160009054906101000a900473ffffffffffffffffffffffffffffffffffffffff1681565b600073ffffffffffffffffffffffffffffffffffffffff82169050919050565b6000819050919050565b600061030f61030a610305846102ca565b6102ea565b6102ca565b9050919050565b6000610321826102f4565b9050919050565b600061033382610316565b9050919050565b61034381610328565b82525050565b600060208201905061035e600083018461033a565b92915050565b600080fd5b6000819050919050565b61037c81610369565b811461038757600080fd5b50565b60008135905061039981610373565b92915050565b600080604083850312156103b6576103b5610364565b5b60006103c48582860161038a565b92505060206103d58582860161038a565b9150509250929050565b60006103ea826102ca565b9050919050565b6103fa816103df565b82525050565b61040981610369565b82525050565b600060608201905061042460008301866103f1565b61043160208301856103f1565b61043e6040830184610400565b949350505050565b60008115159050919050565b61045b81610446565b811461046657600080fd5b50565b60008151905061047881610452565b92915050565b60006020828403121561049457610493610364565b5b60006104a284828501610469565b91505092915050565b600082825260208201905092915050565b7f6661696c656420746f207472616e7366657220746f6b656e2031000000000000600082015250565b60006104f2601a836104ab565b91506104fd826104bc565b602082019050919050565b60006020820190508181036000830152610521816104e5565b9050919050565b7f6661696c656420746f207472616e7366657220746f6b656e2032000000000000600082015250565b600061055e601a836104ab565b915061056982610528565b602082019050919050565b6000602082019050818103600083015261058d81610551565b905091905056fea2646970667358221220af450e3e4b7886f8277faca9410edd9fd10282b08ac442254e0da1f3d10ab8fe64736f6c63430008090033",
  "linkReferences": {},
  "deployedLinkReferences": {}
}