{
  "_format": "hh-sol-artifact-1",
  "contractName": "AMM",
  "sourceName": "contracts/AMM.sol",
  "abi": [
    {
      "inputs": [
        {
          "internalType": "contract Token",
          "name": "_token1",
          "type": "address"
        },
        {
          "internalType": "contract Token",
          "name": "_token2",
          "type": "address"
        }
      ],
      "stateMutability": "nonpayable",
      "type": "constructor"
    },
    {
      "anonymous": false,
      "inputs": [
        {
          "indexed": false,
          "internalType": "address",
          "name": "user",
          "type": "address"
        },
        {
          "indexed": false,
          "internalType": "address",
          "name": "tokenGive",
          "type": "address"
        },
        {
          "indexed": false,
          "internalType": "uint256",
          "name": "tokenGiveAmount",
          "type": "uint256"
        },
        {
          "indexed": false,
          "internalType": "address",
          "name": "tokenGet",
          "type": "address"
        },
        {
          "indexed": false,
          "internalType": "uint256",
          "name": "tokenGetAmount",
          "type": "uint256"
        },
        {
          "indexed": false,
          "internalType": "uint256",
          "name": "token1Balance",
          "type": "uint256"
        },
        {
          "indexed": false,
          "internalType": "uint256",
          "name": "token2Balance",
          "type": "uint256"
        },
        {
          "indexed": false,
          "internalType": "uint256",
          "name": "timestamps",
          "type": "uint256"
        }
      ],
      "name": "Swap",
      "type": "event"
    },
    {
      "inputs": [],
      "name": "K",
      "outputs": [
        {
          "internalType": "uint256",
          "name": "",
          "type": "uint256"
        }
      ],
      "stateMutability": "view",
      "type": "function"
    },
    {
      "inputs": [],
      "name": "Token1",
      "outputs": [
        {
          "internalType": "contract Token",
          "name": "",
          "type": "address"
        }
      ],
      "stateMutability": "view",
      "type": "function"
    },
    {
      "inputs": [],
      "name": "Token2",
      "outputs": [
        {
          "internalType": "contract Token",
          "name": "",
          "type": "address"
        }
      ],
      "stateMutability": "view",
      "type": "function"
    },
    {
      "inputs": [
        {
          "internalType": "uint256",
          "name": "_token1Amount",
          "type": "uint256"
        },
        {
          "internalType": "uint256",
          "name": "_token2Amount",
          "type": "uint256"
        }
      ],
      "name": "addLiquidity",
      "outputs": [],
      "stateMutability": "nonpayable",
      "type": "function"
    },
    {
      "inputs": [
        {
          "internalType": "uint256",
          "name": "_token2Amount",
          "type": "uint256"
        }
      ],
      "name": "calculateToken1Deposit",
      "outputs": [
        {
          "internalType": "uint256",
          "name": "token1Amount",
          "type": "uint256"
        }
      ],
      "stateMutability": "view",
      "type": "function"
    },
    {
      "inputs": [
        {
          "internalType": "uint256",
          "name": "_token1Amount",
          "type": "uint256"
        }
      ],
      "name": "calculateToken1Swap",
      "outputs": [
        {
          "internalType": "uint256",
          "name": "token2Amount",
          "type": "uint256"
        }
      ],
      "stateMutability": "view",
      "type": "function"
    },
    {
      "inputs": [
        {
          "internalType": "uint256",
          "name": "_token1Amount",
          "type": "uint256"
        }
      ],
      "name": "calculateToken2Deposit",
      "outputs": [
        {
          "internalType": "uint256",
          "name": "token2Amount",
          "type": "uint256"
        }
      ],
      "stateMutability": "view",
      "type": "function"
    },
    {
      "inputs": [
        {
          "internalType": "address",
          "name": "",
          "type": "address"
        }
      ],
      "name": "shares",
      "outputs": [
        {
          "internalType": "uint256",
          "name": "",
          "type": "uint256"
        }
      ],
      "stateMutability": "view",
      "type": "function"
    },
    {
      "inputs": [
        {
          "internalType": "uint256",
          "name": "_token1Amount",
          "type": "uint256"
        }
      ],
      "name": "swapToken1",
      "outputs": [
        {
          "internalType": "uint256",
          "name": "token2Amount",
          "type": "uint256"
        }
      ],
      "stateMutability": "nonpayable",
      "type": "function"
    },
    {
      "inputs": [],
      "name": "token1Balance",
      "outputs": [
        {
          "internalType": "uint256",
          "name": "",
          "type": "uint256"
        }
      ],
      "stateMutability": "view",
      "type": "function"
    },
    {
      "inputs": [],
      "name": "token2Balance",
      "outputs": [
        {
          "internalType": "uint256",
          "name": "",
          "type": "uint256"
        }
      ],
      "stateMutability": "view",
      "type": "function"
    },
    {
      "inputs": [],
      "name": "totalShares",
      "outputs": [
        {
          "internalType": "uint256",
          "name": "",
          "type": "uint256"
        }
      ],
      "stateMutability": "view",
      "type": "function"
    }
  ],
  "bytecode": "0x60806040523480156200001157600080fd5b50604051620011d7380380620011d783398181016040528101906200003791906200015e565b816000806101000a81548173ffffffffffffffffffffffffffffffffffffffff021916908373ffffffffffffffffffffffffffffffffffffffff16021790555080600160006101000a81548173ffffffffffffffffffffffffffffffffffffffff021916908373ffffffffffffffffffffffffffffffffffffffff16021790555060006002819055506000600381905550600060048190555060006005819055505050620001a5565b600080fd5b600073ffffffffffffffffffffffffffffffffffffffff82169050919050565b60006200011282620000e5565b9050919050565b6000620001268262000105565b9050919050565b620001388162000119565b81146200014457600080fd5b50565b60008151905062000158816200012d565b92915050565b60008060408385031215620001785762000177620000e0565b5b6000620001888582860162000147565b92505060206200019b8582860162000147565b9150509250929050565b61102280620001b56000396000f3fe608060405234801561001057600080fd5b50600436106100b45760003560e01c8063a932492f11610071578063a932492f1461017d578063b9ffa6a81461019b578063ce7c2ac2146101b9578063de1b6d2a146101e9578063e682ca6914610219578063f4cb34d414610249576100b4565b80633a98ef39146100b957806368a455f1146100d757806396a8797e146100f55780639a5c77a8146101135780639cd441da14610143578063a4baecc91461015f575b600080fd5b6100c1610279565b6040516100ce919061097e565b60405180910390f35b6100df61027f565b6040516100ec919061097e565b60405180910390f35b6100fd610285565b60405161010a9190610a18565b60405180910390f35b61012d60048036038101906101289190610a64565b6102a9565b60405161013a919061097e565b60405180910390f35b61015d60048036038101906101589190610a91565b6102cd565b005b61016761062f565b6040516101749190610a18565b60405180910390f35b610185610655565b604051610192919061097e565b60405180910390f35b6101a361065b565b6040516101b0919061097e565b60405180910390f35b6101d360048036038101906101ce9190610b0f565b610661565b6040516101e0919061097e565b60405180910390f35b61020360048036038101906101fe9190610a64565b610679565b604051610210919061097e565b60405180910390f35b610233600480360381019061022e9190610a64565b61069d565b604051610240919061097e565b60405180910390f35b610263600480360381019061025e9190610a64565b610736565b604051610270919061097e565b60405180910390f35b60055481565b60035481565b60008054906101000a900473ffffffffffffffffffffffffffffffffffffffff1681565b6000600254826003546102bc9190610b6b565b6102c69190610bf4565b9050919050565b60008054906101000a900473ffffffffffffffffffffffffffffffffffffffff1673ffffffffffffffffffffffffffffffffffffffff166323b872dd3330856040518463ffffffff1660e01b815260040161032a93929190610c34565b602060405180830381600087803b15801561034457600080fd5b505af1158015610358573d6000803e3d6000fd5b505050506040513d601f19601f8201168201806040525081019061037c9190610ca3565b6103bb576040517f08c379a00000000000000000000000000000000000000000000000000000000081526004016103b290610d2d565b60405180910390fd5b600160009054906101000a900473ffffffffffffffffffffffffffffffffffffffff1673ffffffffffffffffffffffffffffffffffffffff166323b872dd3330846040518463ffffffff1660e01b815260040161041a93929190610c34565b602060405180830381600087803b15801561043457600080fd5b505af1158015610448573d6000803e3d6000fd5b505050506040513d601f19601f8201168201806040525081019061046c9190610ca3565b6104ab576040517f08c379a00000000000000000000000000000000000000000000000000000000081526004016104a290610d99565b60405180910390fd5b60008060055414156104d357670de0b6b3a764000060646104cc9190610b6b565b9050610573565b6000600254846005546104e69190610b6b565b6104f09190610bf4565b90506000600354846005546105059190610b6b565b61050f9190610bf4565b90506103e88161051f9190610bf4565b6103e88361052d9190610bf4565b1461056d576040517f08c379a000000000000000000000000000000000000000000000000000000000815260040161056490610e05565b60405180910390fd5b81925050505b82600260008282546105859190610e25565b92505081905550816003600082825461059e9190610e25565b925050819055506003546002546105b59190610b6b565b60048190555080600560008282546105cd9190610e25565b9250508190555080600660003373ffffffffffffffffffffffffffffffffffffffff1673ffffffffffffffffffffffffffffffffffffffff16815260200190815260200160002060008282546106239190610e25565b92505081905550505050565b600160009054906101000a900473ffffffffffffffffffffffffffffffffffffffff1681565b60045481565b60025481565b60066020528060005260406000206000915090505481565b60006003548260025461068c9190610b6b565b6106969190610bf4565b9050919050565b600080826002546106ae9190610e25565b90506000816004546106c09190610bf4565b9050806003546106d09190610e7b565b90506003548314156106eb5782806106e790610eaf565b9350505b600354831061072f576040517f08c379a000000000000000000000000000000000000000000000000000000000815260040161072690610f25565b60405180910390fd5b5050919050565b60006107418261069d565b905060008054906101000a900473ffffffffffffffffffffffffffffffffffffffff1673ffffffffffffffffffffffffffffffffffffffff166323b872dd3330856040518463ffffffff1660e01b81526004016107a093929190610c34565b602060405180830381600087803b1580156107ba57600080fd5b505af11580156107ce573d6000803e3d6000fd5b505050506040513d601f19601f820116820180604052508101906107f29190610ca3565b5081600260008282546108059190610e25565b92505081905550806003600082825461081e9190610e7b565b92505081905550600160009054906101000a900473ffffffffffffffffffffffffffffffffffffffff1673ffffffffffffffffffffffffffffffffffffffff1663a9059cbb33836040518363ffffffff1660e01b8152600401610882929190610f45565b602060405180830381600087803b15801561089c57600080fd5b505af11580156108b0573d6000803e3d6000fd5b505050506040513d601f19601f820116820180604052508101906108d49190610ca3565b507f31c309ecd457dce7604a286d63a4b470e321337fb9877ce63c1109e1003c89f63360008054906101000a900473ffffffffffffffffffffffffffffffffffffffff1684600160009054906101000a900473ffffffffffffffffffffffffffffffffffffffff168560025460035442604051610958989796959493929190610f6e565b60405180910390a1919050565b6000819050919050565b61097881610965565b82525050565b6000602082019050610993600083018461096f565b92915050565b600073ffffffffffffffffffffffffffffffffffffffff82169050919050565b6000819050919050565b60006109de6109d96109d484610999565b6109b9565b610999565b9050919050565b60006109f0826109c3565b9050919050565b6000610a02826109e5565b9050919050565b610a12816109f7565b82525050565b6000602082019050610a2d6000830184610a09565b92915050565b600080fd5b610a4181610965565b8114610a4c57600080fd5b50565b600081359050610a5e81610a38565b92915050565b600060208284031215610a7a57610a79610a33565b5b6000610a8884828501610a4f565b91505092915050565b60008060408385031215610aa857610aa7610a33565b5b6000610ab685828601610a4f565b9250506020610ac785828601610a4f565b9150509250929050565b6000610adc82610999565b9050919050565b610aec81610ad1565b8114610af757600080fd5b50565b600081359050610b0981610ae3565b92915050565b600060208284031215610b2557610b24610a33565b5b6000610b3384828501610afa565b91505092915050565b7f4e487b7100000000000000000000000000000000000000000000000000000000600052601160045260246000fd5b6000610b7682610965565b9150610b8183610965565b9250817fffffffffffffffffffffffffffffffffffffffffffffffffffffffffffffffff0483118215151615610bba57610bb9610b3c565b5b828202905092915050565b7f4e487b7100000000000000000000000000000000000000000000000000000000600052601260045260246000fd5b6000610bff82610965565b9150610c0a83610965565b925082610c1a57610c19610bc5565b5b828204905092915050565b610c2e81610ad1565b82525050565b6000606082019050610c496000830186610c25565b610c566020830185610c25565b610c63604083018461096f565b949350505050565b60008115159050919050565b610c8081610c6b565b8114610c8b57600080fd5b50565b600081519050610c9d81610c77565b92915050565b600060208284031215610cb957610cb8610a33565b5b6000610cc784828501610c8e565b91505092915050565b600082825260208201905092915050565b7f6661696c656420746f207472616e7366657220746f6b656e2031000000000000600082015250565b6000610d17601a83610cd0565b9150610d2282610ce1565b602082019050919050565b60006020820190508181036000830152610d4681610d0a565b9050919050565b7f6661696c656420746f207472616e7366657220746f6b656e2032000000000000600082015250565b6000610d83601a83610cd0565b9150610d8e82610d4d565b602082019050919050565b60006020820190508181036000830152610db281610d76565b9050919050565b7f6d7573742070726f7669646520657175616c20746f6b656e20616d6f756e7473600082015250565b6000610def602083610cd0565b9150610dfa82610db9565b602082019050919050565b60006020820190508181036000830152610e1e81610de2565b9050919050565b6000610e3082610965565b9150610e3b83610965565b9250827fffffffffffffffffffffffffffffffffffffffffffffffffffffffffffffffff03821115610e7057610e6f610b3c565b5b828201905092915050565b6000610e8682610965565b9150610e9183610965565b925082821015610ea457610ea3610b3c565b5b828203905092915050565b6000610eba82610965565b91506000821415610ece57610ecd610b3c565b5b600182039050919050565b7f7377617020616d6f756e7420697320746f6f206c617267650000000000000000600082015250565b6000610f0f601883610cd0565b9150610f1a82610ed9565b602082019050919050565b60006020820190508181036000830152610f3e81610f02565b9050919050565b6000604082019050610f5a6000830185610c25565b610f67602083018461096f565b9392505050565b600061010082019050610f84600083018b610c25565b610f91602083018a610c25565b610f9e604083018961096f565b610fab6060830188610c25565b610fb8608083018761096f565b610fc560a083018661096f565b610fd260c083018561096f565b610fdf60e083018461096f565b999850505050505050505056fea26469706673582212202e844e1be26be8a0999d652faf15e0ccb83175001bb348a53bd37c51c588d37764736f6c63430008090033",
  "linkReferences": {},
  "deployedLinkReferences": {}
}